:10056C000A383F065B4F666D7D077F6F0822FEFDE4
:06057C00FBF7EFDFBF7F7B
:0305A700DFFE2252
:1004A000E4F580D2A2C2A2E5212FFE2422F8E6F5CF
:1004B00080D2A3C2A3742F2EF8E6F580D2A2C2A2E6
:1004C0000521ED14FFE521D39F4003E4F5217F646E
:0304D0000205A77B
:1004D3007590F0E59064F060257F701205A7E590B4
:1004E30054F0FE75900FE590640F60127F60120563
:1004F300A7E590640F6007E5904206AF06227F00F0
:0105030022D5
:100432001204D3EF12032B04767704737B04707DCE
:10044200046D7E0482B7047FBB047CBD0479BE04C4
:100452008ED7048BDB0488DD0485DE049AE70497DB
:10046200EB0494ED0491EE0000049D7F01227F04D1
:10047200227F07227F00227F02227F05227F08221D
:100482007F43227F03227F06227F09227F3D227F34
:0D0492002B227F2D227F2A227F2F227FFF29
:01049F00223A
:0A059600438901D2AFD2A9D28C2212
:03000B0002055398
:10055300C0E0C0D075D008758CF8758A2F7D057FF3
:09056300031204A0D0D0D0E03254
:0705A000D2AFD2A8D28822DD
:0305AA00C2A822C2
:03000300020006F2
:04000600752E013220
:0305AD000205AA9A
:100535001205A0E4F52AF52BF52CF52DF5427537B6
:0D054500FF7F08782FE4F608DFFC853836CC
:010552002286
:100583001205AD7F08782FE4F608DFFC7535397561
:020593003679B7
:010595002243
:04000E00AB07AA068C
:100012007F08782FE4F608DFFC7C277D10AF03AE63
:10002200021202DFEF4E600302014AF5327C277DA5
:1000320010AF03AE021202DFAA04AB057C037DE817
:10004200AF03AE021202DFEF4E60030200E3F533AC
:100052007C037DE8AF03AE021202DFAA04AB057C8B
:10006200007D64AF03AE021202DFEF4E703CF53446
:10007200FC7D64AF03AE021202DFAA04AB057C0072
:100082007D0AAF03AE021202DFEF4E7006F535FCB9
:100092000201397C007D0AAF03AE021202DF74381E
:1000A2002FF8E6F5357C000201397C007D64AF0350
:1000B200AE021202DF74382FF8E6F5347C007D645C
:1000C200AF03AE021202DFAA04AB057C007D0AAFC9
:1000D20003AE021202DF74382FF8E6F5357C008099
:1000E200567C037DE8AF03AE021202DF74382FF8AC
:1000F200E6F5337C037DE8AF03AE021202DFAA0409
:10010200AB057C007D64AF03AE021202DF74382FB0
:10011200F8E6F5347C007D64AF03AE021202DFAA7A
:1001220004AB057C007D0AAF03AE021202DF743815
:100132002FF8E6F5357C007D0AAF03AE021202DF2E
:10014200AB0574382B0201CD7C277D10AF03AE02C4
:100152001202DF74382FF8E6F5327C277D10AF03E8
:10016200AE021202DFAA04AB057C037DE8AF03AE48
:10017200021202DF74382FF8E6F5337C037DE8AF14
:1001820003AE021202DFAA04AB057C007D64AF035A
:10019200AE021202DF74382FF8E6F5347C007D647B
:1001A200AF03AE021202DFAA04AB057C007D0AAFE8
:1001B20003AE021202DF74382FF8E6F5357C007DBB
:0F01C2000AAF03AE021202DF74382DF8E6F536ED
:0101D100220B
:1001D200300036E5426018AE2CAF2D7C007D0A124D
:1001E20002CDEF2537F52DEC3EF52CAF2D8016AE66
:1001F2002AAF2B7C007D0A1202CDEF2537F52BECBE
:100202003EF52AAF2BFE02000EE537B4430302058A
:1002120035E537643D60030202C9E542B42B24E5AB
:100222002D252BF52BE52C352AF52AFEAF2B339500
:10023200E0FDFCE47BFF7AFFF9F8C3120315505787
:100242000202C6E542B42D25C3E52B952DE52C64AB
:1002520080F8E52A64809850028069C3E52B952DC9
:10026200F52BE52A952CF52AAF2BFE8050E542644A
:100272002A702AAE2AAF2BAC2CAD2D1202CD8E2ABB
:100282008F2BEE3395E0FDFCE47BFF7AFFF9F8C398
:100292001203155002802DAF2BAE2A8020E542B406
:1002A2002F22AE2AAF2BAC2CAD2D1202DF8E2A8F5D
:1002B2002BE52D452C7002800BAF2BAE2A12000EBF
:0B02C200E4F54222020583853742224A
:100504001205961205357590F0E52E60F9E4F52E86
:100514001204328F37E537C39400400EE537D39485
:10052400095007D2001201D280DCC2001201D2802D
:01053400D5F1
:030000000203A652
:0C03A600787FE4F6D8FD7581420203ED7B
:1002CD00EF8DF0A4A8F0CF8CF0A428CE8DF0A42E45
:0202DD00FE22FF
:1002DF00C2D5EC30E709B2D5E4C39DFDE49CFCEE3A
:1002EF0030E715B2D5E4C39FFFE49EFE120351C35E
:1002FF00E49DFDE49CFC800312035130D507C3E459
:06030F009FFFE49EFE22A8
:10031500EB9FF5F0EA9E42F0E99D42F0EC6480C85F
:0603250064809845F022FF
:10032B00D083D082F8E4937012740193700DA3A361
:10033B0093F8740193F5828883E473740293686075
:06034B00EFA3A3A380DF75
:1003B200020504E493A3F8E493A34003F68001F258
:1003C20008DFF48029E493A3F85407240CC8C3334C
:1003D200C4540F4420C8834004F456800146F6DF1B
:1003E200E4800B010204081020408090056CE47E3A
:1003F200019360BCA3FF543F30E509541FFEE49310
:10040200A360010ECF54C025E060A840B8E493A3D6
:10041200FAE493A3F8E493A3C8C582C8CAC583CA01
:10042200F0A3C8C582C8CAC583CADFE9DEE780BEB9
:010582000078
:10035100BC000BBE0029EF8DF084FFADF022E4CC90
:10036100F875F008EF2FFFEE33FEEC33FCEE9DEC59
:10037100984005FCEE9DFE0FD5F0E9E4CEFD22ED9F
:10038100F8F5F0EE8420D21CFEADF075F008EF2FE9
:10039100FFED33FD4007985006D5F0F222C398FDDA
:0503A1000FD5F0EA2277
:00000001FF
