:100136000A183F065B4F666D7D077F6F0808FEFD58
:06014600FBF7EFDFBF7FB5
:10008F000522E52370097F087810E4F608DFFC7D70
:10009F0008E4FF120104E522D3941440E3E4F522AF
:1000AF00E524701774182523F8E6FFC37407952409
:1000BF002410F8A6070523052480C5E523B40807F7
:1000CF00E4F523F52480B9C374099523B52405E419
:1000DF00F52480ACC374089524FF2410F8E6FEC302
:1000EF0074089524FD740F2DF8A60674102FF8E4EC
:0500FF00F60524808BD2
:0A014D00EF1F70011E144E70F72220
:02010400AC0746
:10010600E4FBEBC39D5028E4F580D2A2C2A2EB2CFF
:100116002408F8E6F580D2A3C2A374102BF8E6F5FE
:0F01260080D2A2C2A27FC87E0012014D0B80D3EF
:0101350022A7
:03000000020003F8
:0C000300787FE4F6D8FD75812402004AE5
:10000F0002008FE493A3F8E493A34003F68001F278
:10001F0008DFF48029E493A3F85407240CC8C333F2
:10002F00C4540F4420C8834004F456800146F6DFC1
:10003F00E4800B0102040810204080900136E47E1A
:10004F00019360BCA3FF543F30E509541FFEE493B6
:10005F00A360010ECF54C025E060A840B8E493A37D
:10006F00FAE493A3F8E493A3C8C582C8CAC583CAA8
:10007F00F0A3C8C582C8CAC583CADFE9DEE780BE60
:01014C0000B2
:00000001FF
