:0300FD00010801F6
:10008F00750803C290C291C292C293D290C29112CC
:10009F0000E8D2901200E6C2901200E6C290D29110
:1000AF00D2921200EAC290C291D2921200EAC2908A
:1000BF00C291D292D293AF081200EEC290C291C2F7
:1000CF0092D293AF081200EED290C291C292D29305
:0700DF00AF081200EE80B42F
:0800E600D291C292C293AF084F
:0E00EE00AD071FED60087E321EEE60F480FA52
:0100FC0022E1
:03000000020003F8
:0C000300787FE4F6D8FD75810802004A01
:10000F0002008FE493A3F8E493A34003F68001F278
:10001F0008DFF48029E493A3F85407240CC8C333F2
:10002F00C4540F4420C8834004F456800146F6DFC1
:10003F00E4800B01020408102040809000FDE47E54
:10004F00019360BCA3FF543F30E509541FFEE493B6
:10005F00A360010ECF54C025E060A840B8E493A37D
:10006F00FAE493A3F8E493A3C8C582C8CAC583CAA8
:10007F00F0A3C8C582C8CAC583CADFE9DEE780BE60
:0101000000FE
:00000001FF
