:0A014D003F065B4F666D7D077F6F74
:03000B00020006EA
:030006000522329E
:0300030002007D7B
:09007D00C0E0C0D075D000C00045
:10008600300029E522C3943F500AE522C39421405B
:100096000375210074272521F8A622752200052163
:1000A600E521B4210CD2017521008005752200D20C
:0100B6000049
:0700B700D000D0D0D0E032F0
:0D013400758902E4F58CF58AD2A9D28C22DF
:07015700D288D2A8D2AF222A
:10000E00E5251200EF00550800400C003516004B98
:10001E0018005A1C006442006E4A006952005F5A72
:10002E0000505E0000007790014DE493F580D29170
:10003E00803A90014EE493F580C291802F90014F4B
:10004E008021900150801C900151801790015280A8
:10005E0012900153800D9001548008900155800339
:0F006E00900156E493F5808003852580C202221D
:1000BE007E01E4FD7C0174272EF8E6D394074003FD
:1000CE00430780ECC394085004EFC313FF0E0CBC1F
:1000DE0009E474232DF8A607E4FF0DBD04D6D20261
:0100EE0022EF
:10011500C2901201571201347580FED2A3C2A330DA
:0F01250001051200BEC2013002F512000E80F07B
:03000000020141B9
:0C014100787FE4F6D8FD758147020115B7
:1000EF00D083D082F8E4937012740193700DA3A3A0
:1000FF0093F8740193F5828883E4737402936860B4
:06010F00EFA3A3A380DFB3
:00000001FF
